{
  "contractName": "OceanToken",
  "abi": [
    {
      "constant": true,
      "inputs": [],
      "name": "_receiver",
      "outputs": [
        {
          "name": "",
          "type": "address"
        }
      ],
      "payable": false,
      "stateMutability": "view",
      "type": "function"
    },
    {
      "constant": true,
      "inputs": [],
      "name": "name",
      "outputs": [
        {
          "name": "",
          "type": "string"
        }
      ],
      "payable": false,
      "stateMutability": "view",
      "type": "function"
    },
    {
      "constant": true,
      "inputs": [],
      "name": "totalSupply",
      "outputs": [
        {
          "name": "",
          "type": "uint256"
        }
      ],
      "payable": false,
      "stateMutability": "view",
      "type": "function"
    },
    {
      "constant": true,
      "inputs": [],
      "name": "decimals",
      "outputs": [
        {
          "name": "",
          "type": "uint8"
        }
      ],
      "payable": false,
      "stateMutability": "view",
      "type": "function"
    },
    {
      "constant": false,
      "inputs": [
        {
          "name": "_spender",
          "type": "address"
        },
        {
          "name": "_subtractedValue",
          "type": "uint256"
        }
      ],
      "name": "decreaseApproval",
      "outputs": [
        {
          "name": "success",
          "type": "bool"
        }
      ],
      "payable": false,
      "stateMutability": "nonpayable",
      "type": "function"
    },
    {
      "constant": true,
      "inputs": [
        {
          "name": "_owner",
          "type": "address"
        }
      ],
      "name": "balanceOf",
      "outputs": [
        {
          "name": "balance",
          "type": "uint256"
        }
      ],
      "payable": false,
      "stateMutability": "view",
      "type": "function"
    },
    {
      "constant": true,
      "inputs": [],
      "name": "TOTAL_SUPPLY",
      "outputs": [
        {
          "name": "",
          "type": "uint256"
        }
      ],
      "payable": false,
      "stateMutability": "view",
      "type": "function"
    },
    {
      "constant": true,
      "inputs": [],
      "name": "symbol",
      "outputs": [
        {
          "name": "",
          "type": "string"
        }
      ],
      "payable": false,
      "stateMutability": "view",
      "type": "function"
    },
    {
      "constant": false,
      "inputs": [
        {
          "name": "_spender",
          "type": "address"
        },
        {
          "name": "_addedValue",
          "type": "uint256"
        }
      ],
      "name": "increaseApproval",
      "outputs": [
        {
          "name": "success",
          "type": "bool"
        }
      ],
      "payable": false,
      "stateMutability": "nonpayable",
      "type": "function"
    },
    {
      "inputs": [],
      "payable": false,
      "stateMutability": "nonpayable",
      "type": "constructor"
    },
    {
      "anonymous": false,
      "inputs": [
        {
          "indexed": true,
          "name": "owner",
          "type": "address"
        },
        {
          "indexed": true,
          "name": "spender",
          "type": "address"
        },
        {
          "indexed": false,
          "name": "value",
          "type": "uint256"
        }
      ],
      "name": "Approval",
      "type": "event"
    },
    {
      "anonymous": false,
      "inputs": [
        {
          "indexed": true,
          "name": "from",
          "type": "address"
        },
        {
          "indexed": true,
          "name": "to",
          "type": "address"
        },
        {
          "indexed": false,
          "name": "value",
          "type": "uint256"
        }
      ],
      "name": "Transfer",
      "type": "event"
    },
    {
      "constant": false,
      "inputs": [
        {
          "name": "_to",
          "type": "address"
        }
      ],
      "name": "setReceiver",
      "outputs": [
        {
          "name": "success",
          "type": "bool"
        }
      ],
      "payable": false,
      "stateMutability": "nonpayable",
      "type": "function"
    },
    {
      "constant": false,
      "inputs": [
        {
          "name": "_to",
          "type": "address"
        },
        {
          "name": "_value",
          "type": "uint256"
        }
      ],
      "name": "transfer",
      "outputs": [
        {
          "name": "",
          "type": "bool"
        }
      ],
      "payable": false,
      "stateMutability": "nonpayable",
      "type": "function"
    },
    {
      "constant": false,
      "inputs": [
        {
          "name": "_from",
          "type": "address"
        },
        {
          "name": "_to",
          "type": "address"
        },
        {
          "name": "_value",
          "type": "uint256"
        }
      ],
      "name": "transferFrom",
      "outputs": [
        {
          "name": "",
          "type": "bool"
        }
      ],
      "payable": false,
      "stateMutability": "nonpayable",
      "type": "function"
    },
    {
      "constant": false,
      "inputs": [
        {
          "name": "_spender",
          "type": "address"
        },
        {
          "name": "_value",
          "type": "uint256"
        }
      ],
      "name": "approve",
      "outputs": [
        {
          "name": "",
          "type": "bool"
        }
      ],
      "payable": false,
      "stateMutability": "nonpayable",
      "type": "function"
    },
    {
      "constant": true,
      "inputs": [
        {
          "name": "_owner",
          "type": "address"
        },
        {
          "name": "_spender",
          "type": "address"
        }
      ],
      "name": "allowance",
      "outputs": [
        {
          "name": "",
          "type": "uint256"
        }
      ],
      "payable": false,
      "stateMutability": "view",
      "type": "function"
    }
  ],
  "bytecode": "0x608060405260068054600160a060020a031916905534801561002057600080fd5b506353724e00600755610b13806100386000396000f3006080604052600436106100cf5763ffffffff7c010000000000000000000000000000000000000000000000000000000060003504166302964ff181146100d457806306fdde0314610105578063095ea7b31461018f57806318160ddd146101c757806323b872dd146101ee578063313ce56714610218578063661884631461024357806370a0823114610267578063718da7ee14610288578063902d55a5146102a957806395d89b41146102be578063a9059cbb146102d3578063d73dd623146102f7578063dd62ed3e1461031b575b600080fd5b3480156100e057600080fd5b506100e9610342565b60408051600160a060020a039092168252519081900360200190f35b34801561011157600080fd5b5061011a610351565b6040805160208082528351818301528351919283929083019185019080838360005b8381101561015457818101518382015260200161013c565b50505050905090810190601f1680156101815780820380516001836020036101000a031916815260200191505b509250505060405180910390f35b34801561019b57600080fd5b506101b3600160a060020a0360043516602435610388565b604080519115158252519081900360200190f35b3480156101d357600080fd5b506101dc61039b565b60408051918252519081900360200190f35b3480156101fa57600080fd5b506101b3600160a060020a03600435811690602435166044356103a1565b34801561022457600080fd5b5061022d61042d565b6040805160ff9092168252519081900360200190f35b34801561024f57600080fd5b506101b3600160a060020a0360043516602435610432565b34801561027357600080fd5b506101dc600160a060020a0360043516610522565b34801561029457600080fd5b506101b3600160a060020a036004351661053d565b3480156102b557600080fd5b506101dc610641565b3480156102ca57600080fd5b5061011a610649565b3480156102df57600080fd5b506101b3600160a060020a0360043516602435610680565b34801561030357600080fd5b506101b3600160a060020a0360043516602435610703565b34801561032757600080fd5b506101dc600160a060020a036004358116906024351661079c565b600654600160a060020a031681565b60408051808201909152600a81527f4f6365616e546f6b656e00000000000000000000000000000000000000000000602082015281565b600061039483836107a8565b9392505050565b60075481565b6000600160a060020a038316151561041a57604080517f08c379a000000000000000000000000000000000000000000000000000000000815260206004820152601260248201527f546f2061646472657373206973203078302e0000000000000000000000000000604482015290519081900360640190fd5b61042584848461083f565b949350505050565b600081565b336000908152600260209081526040808320600160a060020a03861684529091528120548083111561048757336000908152600260209081526040808320600160a060020a03881684529091528120556104bc565b610497818463ffffffff6109b816565b336000908152600260209081526040808320600160a060020a03891684529091529020555b336000818152600260209081526040808320600160a060020a0389168085529083529281902054815190815290519293927f8c5be1e5ebec7d5bd14f71427d1e84f3dd0314c0f7b2291e5b200ac8c7c3b925929181900390910190a35060019392505050565b600160a060020a031660009081526001602052604090205490565b600654600090600160a060020a0316156105b857604080517f08c379a000000000000000000000000000000000000000000000000000000000815260206004820152601c60248201527f52656365697665722061646472657373206973206e6f74203078302e00000000604482015290519081900360640190fd5b6006805473ffffffffffffffffffffffffffffffffffffffff1916600160a060020a0384811691909117808355811660009081526001602090815260408083206353724e009081905594548151958652905193169391927fddf252ad1be2c89b69c2b068fc378daa952ba7f163c4a11628f55a4df523b3ef9281900390910190a3506001919050565b6353724e0081565b60408051808201909152600381527f4f434e0000000000000000000000000000000000000000000000000000000000602082015281565b6000600160a060020a03831615156106f957604080517f08c379a000000000000000000000000000000000000000000000000000000000815260206004820152601260248201527f546f2061646472657373206973203078302e0000000000000000000000000000604482015290519081900360640190fd5b61039483836109ca565b336000908152600260209081526040808320600160a060020a0386168452909152812054610737908363ffffffff610aad16565b336000818152600260209081526040808320600160a060020a0389168085529083529281902085905580519485525191937f8c5be1e5ebec7d5bd14f71427d1e84f3dd0314c0f7b2291e5b200ac8c7c3b925929081900390910190a350600192915050565b60006103948383610abc565b6003805473ffffffffffffffffffffffffffffffffffffffff199081163390811790925560048054600160a060020a038616921682179055600583905560008281526002602090815260408083208484528252808320869055805186815290519294927f8c5be1e5ebec7d5bd14f71427d1e84f3dd0314c0f7b2291e5b200ac8c7c3b925929181900390910190a350600192915050565b6000600160a060020a038316151561085657600080fd5b600160a060020a03841660009081526001602052604090205482111561087b57600080fd5b600160a060020a03841660009081526002602090815260408083203384529091529020548211156108ab57600080fd5b600160a060020a0384166000908152600160205260409020546108d4908363ffffffff6109b816565b600160a060020a038086166000908152600160205260408082209390935590851681522054610909908363ffffffff610aad16565b600160a060020a03808516600090815260016020908152604080832094909455918716815260028252828120338252909152205461094d908363ffffffff6109b816565b600160a060020a03808616600081815260026020908152604080832033845282529182902094909455805186815290519287169391927fddf252ad1be2c89b69c2b068fc378daa952ba7f163c4a11628f55a4df523b3ef929181900390910190a35060019392505050565b6000828211156109c457fe5b50900390565b6000600160a060020a03831615156109e157600080fd5b336000908152600160205260409020548211156109fd57600080fd5b33600090815260016020526040902054610a1d908363ffffffff6109b816565b3360009081526001602052604080822092909255600160a060020a03851681522054610a4f908363ffffffff610aad16565b600160a060020a0384166000818152600160209081526040918290209390935580518581529051919233927fddf252ad1be2c89b69c2b068fc378daa952ba7f163c4a11628f55a4df523b3ef9281900390910190a350600192915050565b60008282018381101561039457fe5b600160a060020a039182166000908152600260209081526040808320939094168252919091522054905600a165627a7a723058202a90308dbc15e0822f07a59d55ad118909619fad019c83ad6856f1950cdcf8c10029",
  "source": "pragma solidity ^0.4.24;\n\nimport '../zeppelin/StandardToken.sol';\nimport '../zeppelin/Ownable.sol';\n\ncontract OceanToken is StandardToken {\n\n    using SafeMath for uint256;\n\n    string public constant name = 'OceanToken';                         // Set the token name for display\n    string public constant symbol = 'OCN';                              // Set the token symbol for display\n\n    // SUPPLY\n    uint8 public constant decimals = 0;                               // Set the number of decimals for display\n    uint256 public constant TOTAL_SUPPLY = 1400000000;                 // OceanToken total supply\n\n    // EMIT TOKENS\n    address public _receiver = 0x0;                                   // address to receive TOKENS\n    uint256 public totalSupply;                                       // total supply of Ocean tokens including initial tokens plus block rewards\n\n    /**\n    * @dev OceanToken Constructor\n    * Runs only on initial contract creation.\n    */\n    constructor() public {\n        totalSupply = TOTAL_SUPPLY;\n    }\n\n    /**\n    * @dev setReceiver set the address to receive the emitted tokens\n    * @param _to The address to send tokens\n    * @return success setting is successful.\n    */\n    function setReceiver(address _to) public returns (bool success){\n        require(_receiver == address(0), 'Receiver address is not 0x0.');\n        _receiver = _to;\n        // Creator address is assigned initial available tokens\n        balances[_receiver] = TOTAL_SUPPLY;\n        emit Transfer(0x0, _receiver, TOTAL_SUPPLY);\n        return true;\n    }\n\n    /**\n    * @dev Transfer token for a specified address when not paused\n    * @param _to The address to transfer to.\n    * @param _value The amount to be transferred.\n    */\n    function transfer(address _to, uint256 _value) public returns (bool) {\n        require(_to != address(0), 'To address is 0x0.');\n        return super.transfer(_to, _value);\n    }\n\n    /**\n    * @dev Transfer tokens from one address to another when not paused\n    * @param _from address The address which you want to send tokens from\n    * @param _to address The address which you want to transfer to\n    * @param _value uint256 the amount of tokens to be transferred\n    */\n    function transferFrom(address _from, address _to, uint256 _value) public returns (bool) {\n        require(_to != address(0), 'To address is 0x0.');\n        return super.transferFrom(_from, _to, _value);\n    }\n\n    /**\n    * @dev Aprove the passed address to spend the specified amount of tokens on behalf of msg.sender when not paused.\n    * @param _spender The address which will spend the funds.\n    * @param _value The amount of tokens to be spent.\n    */\n    function approve(address _spender, uint256 _value) public returns (bool) {\n        return super.approve(_spender, _value);\n    }\n\n    /* solium-disable-next-line no-constant */\n    function allowance(address _owner, address _spender) public constant returns (uint256) {\n        return super.allowance(_owner, _spender);\n    }\n\n}\n",
  "sourcePath": "/home/eruiz/Projects/keeper-contracts/contracts/token/OceanToken.sol",
  "compiler": {
    "name": "solc",
    "version": "0.4.24+commit.e67f0147.Emscripten.clang"
  },
  "schemaVersion": "2.0.0",
  "updatedAt": "2018-08-03T13:04:52.449Z"
}