{
  "contractName": "AttributeStore",
  "abi": [
    {
      "constant": true,
      "inputs": [
        {
          "name": "self",
          "type": "AttributeStore.Data storage"
        },
        {
          "name": "_UUID",
          "type": "bytes32"
        },
        {
          "name": "_attrName",
          "type": "string"
        }
      ],
      "name": "getAttribute",
      "outputs": [
        {
          "name": "",
          "type": "uint256"
        }
      ],
      "payable": false,
      "stateMutability": "view",
      "type": "function"
    },
    {
      "constant": false,
      "inputs": [
        {
          "name": "self",
          "type": "AttributeStore.Data storage"
        },
        {
          "name": "_UUID",
          "type": "bytes32"
        },
        {
          "name": "_attrName",
          "type": "string"
        },
        {
          "name": "_attrVal",
          "type": "uint256"
        }
      ],
      "name": "setAttribute",
      "outputs": [],
      "payable": false,
      "stateMutability": "nonpayable",
      "type": "function"
    }
  ],
  "bytecode": "0x610257610030600b82828239805160001a6073146000811461002057610022565bfe5b5030600052607381538281f30073000000000000000000000000000000000000000030146080604052600436106100625763ffffffff7c010000000000000000000000000000000000000000000000000000000060003504166350389f5c8114610067578063977aa031146100cc575b600080fd5b604080516020600460443581810135601f81018490048402850184019095528484526100ba9482359460248035953695946064949201919081908401838280828437509497506101309650505050505050565b60408051918252519081900360200190f35b8180156100d857600080fd5b50604080516020600460443581810135601f810184900484028501840190955284845261012e94823594602480359536959460649492019190819084018382808284375094975050933594506101ae9350505050565b005b6040518281528151600091829185918591602080830191908401908083835b6020831061016e5780518252601f19909201916020918201910161014f565b51815160209384036101000a6000190180199092169116179052604080519290940182900390912060009081529a90525090972054979650505050505050565b60405183815282516000918591859190602080830191908401908083835b602083106101eb5780518252601f1990920191602091820191016101cc565b51815160209384036101000a6000190180199092169116179052604080519290940182900390912060009081529a905250909720939093555050505050505600a165627a7a72305820bea8bbfe0b2a257fa67628120235294e8c4a4855afc51201fd1197a58309dc740029",
  "source": "pragma solidity^0.4.11;\r\n\r\nlibrary AttributeStore {\r\n    struct Data {\r\n        mapping(bytes32 => uint) store;\r\n    }\r\n\r\n    function getAttribute(Data storage self, bytes32 _UUID, string _attrName)\r\n    public view returns (uint) {\r\n        bytes32 key = keccak256(_UUID, _attrName);\r\n        return self.store[key];\r\n    }\r\n\r\n    function setAttribute(Data storage self, bytes32 _UUID, string _attrName, uint _attrVal)\r\n    public {\r\n        bytes32 key = keccak256(_UUID, _attrName);\r\n        self.store[key] = _attrVal;\r\n    }\r\n}\r\n",
  "sourcePath": "attrstore/AttributeStore.sol",
  "compiler": {
    "name": "solc",
    "version": "0.4.24+commit.e67f0147.Emscripten.clang"
  },
  "schemaVersion": "2.0.0",
  "updatedAt": "2018-07-05T08:39:26.863Z"
}